{
	"contracts/FundMe.sol": {
		"FundMe": {
			"abi": [
				{
					"inputs": [
						{
							"internalType": "address",
							"name": "",
							"type": "address"
						}
					],
					"name": "addressToAmountFunded",
					"outputs": [
						{
							"internalType": "uint256",
							"name": "",
							"type": "uint256"
						}
					],
					"stateMutability": "view",
					"type": "function"
				},
				{
					"inputs": [],
					"name": "fund",
					"outputs": [],
					"stateMutability": "payable",
					"type": "function"
				},
				{
					"inputs": [
						{
							"internalType": "uint256",
							"name": "",
							"type": "uint256"
						}
					],
					"name": "funders",
					"outputs": [
						{
							"internalType": "address",
							"name": "",
							"type": "address"
						}
					],
					"stateMutability": "view",
					"type": "function"
				},
				{
					"inputs": [],
					"name": "minimumUsd",
					"outputs": [
						{
							"internalType": "uint256",
							"name": "",
							"type": "uint256"
						}
					],
					"stateMutability": "view",
					"type": "function"
				}
			],
			"devdoc": {
				"kind": "dev",
				"methods": {},
				"version": 1
			},
			"evm": {
				"assembly": "    /* \"contracts/FundMe.sol\":181:742  contract FundMe {... */\n  mstore(0x40, 0x80)\n    /* \"contracts/FundMe.sol\":273:282  50 * 1e18 */\n  0x02b5e3af16b1880000\n    /* \"contracts/FundMe.sol\":245:282  uint256 public minimumUsd = 50 * 1e18 */\n  0x00\n  sstore\n    /* \"contracts/FundMe.sol\":181:742  contract FundMe {... */\n  callvalue\n  dup1\n  iszero\n  tag_1\n  jumpi\n  0x00\n  dup1\n  revert\ntag_1:\n  pop\n  dataSize(sub_0)\n  dup1\n  dataOffset(sub_0)\n  0x00\n  codecopy\n  0x00\n  return\nstop\n\nsub_0: assembly {\n        /* \"contracts/FundMe.sol\":181:742  contract FundMe {... */\n      mstore(0x40, 0x80)\n      jumpi(tag_1, lt(calldatasize, 0x04))\n      shr(0xe0, calldataload(0x00))\n      dup1\n      0x098de820\n      eq\n      tag_2\n      jumpi\n      dup1\n      0x3e47d6f3\n      eq\n      tag_3\n      jumpi\n      dup1\n      0xb60d4288\n      eq\n      tag_4\n      jumpi\n      dup1\n      0xdc0d3dff\n      eq\n      tag_5\n      jumpi\n    tag_1:\n      0x00\n      dup1\n      revert\n        /* \"contracts/FundMe.sol\":245:282  uint256 public minimumUsd = 50 * 1e18 */\n    tag_2:\n      callvalue\n      dup1\n      iszero\n      tag_6\n      jumpi\n      0x00\n      dup1\n      revert\n    tag_6:\n      pop\n      tag_7\n      tag_8\n      jump\t// in\n    tag_7:\n      mload(0x40)\n      tag_9\n      swap2\n      swap1\n      tag_10\n      jump\t// in\n    tag_9:\n      mload(0x40)\n      dup1\n      swap2\n      sub\n      swap1\n      return\n        /* \"contracts/FundMe.sol\":340:396  mapping(address => uint256) public addressToAmountFunded */\n    tag_3:\n      callvalue\n      dup1\n      iszero\n      tag_11\n      jumpi\n      0x00\n      dup1\n      revert\n    tag_11:\n      pop\n      tag_12\n      0x04\n      dup1\n      calldatasize\n      sub\n      dup2\n      add\n      swap1\n      tag_13\n      swap2\n      swap1\n      tag_14\n      jump\t// in\n    tag_13:\n      tag_15\n      jump\t// in\n    tag_12:\n      mload(0x40)\n      tag_16\n      swap2\n      swap1\n      tag_10\n      jump\t// in\n    tag_16:\n      mload(0x40)\n      dup1\n      swap2\n      sub\n      swap1\n      return\n        /* \"contracts/FundMe.sol\":405:738  function fund() public payable {... */\n    tag_4:\n      tag_17\n      tag_18\n      jump\t// in\n    tag_17:\n      stop\n        /* \"contracts/FundMe.sol\":308:333  address[] public  funders */\n    tag_5:\n      callvalue\n      dup1\n      iszero\n      tag_19\n      jumpi\n      0x00\n      dup1\n      revert\n    tag_19:\n      pop\n      tag_20\n      0x04\n      dup1\n      calldatasize\n      sub\n      dup2\n      add\n      swap1\n      tag_21\n      swap2\n      swap1\n      tag_22\n      jump\t// in\n    tag_21:\n      tag_23\n      jump\t// in\n    tag_20:\n      mload(0x40)\n      tag_24\n      swap2\n      swap1\n      tag_25\n      jump\t// in\n    tag_24:\n      mload(0x40)\n      dup1\n      swap2\n      sub\n      swap1\n      return\n        /* \"contracts/FundMe.sol\":245:282  uint256 public minimumUsd = 50 * 1e18 */\n    tag_8:\n      sload(0x00)\n      dup2\n      jump\t// out\n        /* \"contracts/FundMe.sol\":340:396  mapping(address => uint256) public addressToAmountFunded */\n    tag_15:\n      mstore(0x20, 0x02)\n      dup1\n      0x00\n      mstore\n      keccak256(0x00, 0x40)\n      0x00\n      swap2\n      pop\n      swap1\n      pop\n      sload\n      dup2\n      jump\t// out\n        /* \"contracts/FundMe.sol\":405:738  function fund() public payable {... */\n    tag_18:\n        /* \"contracts/FundMe.sol\":605:615  minimumUsd */\n      sload(0x00)\n        /* \"contracts/FundMe.sol\":572:601  msg.value.getConversionRate() */\n      tag_27\n        /* \"contracts/FundMe.sol\":572:581  msg.value */\n      callvalue\n        /* \"contracts/FundMe.sol\":572:599  msg.value.getConversionRate */\n      tag_28\n        /* \"contracts/FundMe.sol\":572:601  msg.value.getConversionRate() */\n      jump\t// in\n    tag_27:\n        /* \"contracts/FundMe.sol\":572:615  msg.value.getConversionRate() >= minimumUsd */\n      lt\n      iszero\n        /* \"contracts/FundMe.sol\":564:639  require(msg.value.getConversionRate() >= minimumUsd, \"Didn't send enough!\") */\n      tag_29\n      jumpi\n      mload(0x40)\n      0x08c379a000000000000000000000000000000000000000000000000000000000\n      dup2\n      mstore\n      0x04\n      add\n      tag_30\n      swap1\n      tag_31\n      jump\t// in\n    tag_30:\n      mload(0x40)\n      dup1\n      swap2\n      sub\n      swap1\n      revert\n    tag_29:\n        /* \"contracts/FundMe.sol\":650:657  funders */\n      0x01\n        /* \"contracts/FundMe.sol\":663:673  msg.sender */\n      caller\n        /* \"contracts/FundMe.sol\":650:674  funders.push(msg.sender) */\n      swap1\n      dup1\n      0x01\n      dup2\n      sload\n      add\n      dup1\n      dup3\n      sstore\n      dup1\n      swap2\n      pop\n      pop\n      0x01\n      swap1\n      sub\n      swap1\n      0x00\n      mstore\n      keccak256(0x00, 0x20)\n      add\n      0x00\n      swap1\n      swap2\n      swap1\n      swap2\n      swap1\n      swap2\n      0x0100\n      exp\n      dup2\n      sload\n      dup2\n      0xffffffffffffffffffffffffffffffffffffffff\n      mul\n      not\n      and\n      swap1\n      dup4\n      0xffffffffffffffffffffffffffffffffffffffff\n      and\n      mul\n      or\n      swap1\n      sstore\n      pop\n        /* \"contracts/FundMe.sol\":721:730  msg.value */\n      callvalue\n        /* \"contracts/FundMe.sol\":685:706  addressToAmountFunded */\n      0x02\n        /* \"contracts/FundMe.sol\":685:718  addressToAmountFunded[msg.sender] */\n      0x00\n        /* \"contracts/FundMe.sol\":707:717  msg.sender */\n      caller\n        /* \"contracts/FundMe.sol\":685:718  addressToAmountFunded[msg.sender] */\n      0xffffffffffffffffffffffffffffffffffffffff\n      and\n      0xffffffffffffffffffffffffffffffffffffffff\n      and\n      dup2\n      mstore\n      0x20\n      add\n      swap1\n      dup2\n      mstore\n      0x20\n      add\n      0x00\n      keccak256\n        /* \"contracts/FundMe.sol\":685:730  addressToAmountFunded[msg.sender] = msg.value */\n      dup2\n      swap1\n      sstore\n      pop\n        /* \"contracts/FundMe.sol\":405:738  function fund() public payable {... */\n      jump\t// out\n        /* \"contracts/FundMe.sol\":308:333  address[] public  funders */\n    tag_23:\n      0x01\n      dup2\n      dup2\n      sload\n      dup2\n      lt\n      tag_33\n      jumpi\n      0x00\n      dup1\n      revert\n    tag_33:\n      swap1\n      0x00\n      mstore\n      keccak256(0x00, 0x20)\n      add\n      0x00\n      swap2\n      pop\n      sload\n      swap1\n      0x0100\n      exp\n      swap1\n      div\n      0xffffffffffffffffffffffffffffffffffffffff\n      and\n      dup2\n      jump\t// out\n        /* \"contracts/PriceConverter.sol\":823:1176  function getConversionRate(uint256 ethAmount) internal  view returns (uint256) {... */\n    tag_28:\n        /* \"contracts/PriceConverter.sol\":893:900  uint256 */\n      0x00\n        /* \"contracts/PriceConverter.sol\":913:929  uint256 ethPrice */\n      dup1\n        /* \"contracts/PriceConverter.sol\":932:942  getPrice() */\n      tag_36\n        /* \"contracts/PriceConverter.sol\":932:940  getPrice */\n      tag_37\n        /* \"contracts/PriceConverter.sol\":932:942  getPrice() */\n      jump\t// in\n    tag_36:\n        /* \"contracts/PriceConverter.sol\":913:942  uint256 ethPrice = getPrice() */\n      swap1\n      pop\n        /* \"contracts/PriceConverter.sol\":953:975  uint256 ethAmountInUsd */\n      0x00\n        /* \"contracts/PriceConverter.sol\":1003:1007  1e18 */\n      0x0de0b6b3a7640000\n        /* \"contracts/PriceConverter.sol\":990:999  ethAmount */\n      dup5\n        /* \"contracts/PriceConverter.sol\":979:987  ethPrice */\n      dup4\n        /* \"contracts/PriceConverter.sol\":979:999  ethPrice * ethAmount */\n      tag_38\n      swap2\n      swap1\n      tag_39\n      jump\t// in\n    tag_38:\n        /* \"contracts/PriceConverter.sol\":978:1007  (ethPrice * ethAmount) / 1e18 */\n      tag_40\n      swap2\n      swap1\n      tag_41\n      jump\t// in\n    tag_40:\n        /* \"contracts/PriceConverter.sol\":953:1007  uint256 ethAmountInUsd = (ethPrice * ethAmount) / 1e18 */\n      swap1\n      pop\n        /* \"contracts/PriceConverter.sol\":1025:1039  ethAmountInUsd */\n      dup1\n        /* \"contracts/PriceConverter.sol\":1018:1039  return ethAmountInUsd */\n      swap3\n      pop\n      pop\n      pop\n        /* \"contracts/PriceConverter.sol\":823:1176  function getConversionRate(uint256 ethAmount) internal  view returns (uint256) {... */\n      swap2\n      swap1\n      pop\n      jump\t// out\n        /* \"contracts/PriceConverter.sol\":172:600  function getPrice() internal  view returns (uint256) {... */\n    tag_37:\n        /* \"contracts/PriceConverter.sol\":216:223  uint256 */\n      0x00\n        /* \"contracts/PriceConverter.sol\":315:346  AggregatorV3Interface priceFeed */\n      dup1\n        /* \"contracts/PriceConverter.sol\":371:413  0x694AA1769357215DE4FAC081bf1f309aDC325306 */\n      0x694aa1769357215de4fac081bf1f309adc325306\n        /* \"contracts/PriceConverter.sol\":315:414  AggregatorV3Interface priceFeed = AggregatorV3Interface(0x694AA1769357215DE4FAC081bf1f309aDC325306) */\n      swap1\n      pop\n        /* \"contracts/PriceConverter.sol\":427:436  int price */\n      0x00\n        /* \"contracts/PriceConverter.sol\":443:452  priceFeed */\n      dup2\n        /* \"contracts/PriceConverter.sol\":443:468  priceFeed.latestRoundData */\n      0xffffffffffffffffffffffffffffffffffffffff\n      and\n      0xfeaf968c\n        /* \"contracts/PriceConverter.sol\":443:470  priceFeed.latestRoundData() */\n      mload(0x40)\n      dup2\n      0xffffffff\n      and\n      0xe0\n      shl\n      dup2\n      mstore\n      0x04\n      add\n      0xa0\n      mload(0x40)\n      dup1\n      dup4\n      sub\n      dup2\n      dup7\n      gas\n      staticcall\n      iszero\n      dup1\n      iszero\n      tag_44\n      jumpi\n      returndatasize\n      0x00\n      dup1\n      returndatacopy\n      revert(0x00, returndatasize)\n    tag_44:\n      pop\n      pop\n      pop\n      pop\n      mload(0x40)\n      returndatasize\n      not(0x1f)\n      0x1f\n      dup3\n      add\n      and\n      dup3\n      add\n      dup1\n      0x40\n      mstore\n      pop\n      dup2\n      add\n      swap1\n      tag_45\n      swap2\n      swap1\n      tag_46\n      jump\t// in\n    tag_45:\n        /* \"contracts/PriceConverter.sol\":425:470  (,int price,,,) = priceFeed.latestRoundData() */\n      pop\n      pop\n      pop\n      swap2\n      pop\n      pop\n        /* \"contracts/PriceConverter.sol\":563:567  1e10 */\n      0x02540be400\n        /* \"contracts/PriceConverter.sol\":555:560  price */\n      dup2\n        /* \"contracts/PriceConverter.sol\":555:567  price + 1e10 */\n      tag_47\n      swap2\n      swap1\n      tag_48\n      jump\t// in\n    tag_47:\n        /* \"contracts/PriceConverter.sol\":539:568  return uint256 (price + 1e10) */\n      swap3\n      pop\n      pop\n      pop\n        /* \"contracts/PriceConverter.sol\":172:600  function getPrice() internal  view returns (uint256) {... */\n      swap1\n      jump\t// out\n        /* \"#utility.yul\":7:84   */\n    tag_49:\n        /* \"#utility.yul\":44:51   */\n      0x00\n        /* \"#utility.yul\":73:78   */\n      dup2\n        /* \"#utility.yul\":62:78   */\n      swap1\n      pop\n        /* \"#utility.yul\":7:84   */\n      swap2\n      swap1\n      pop\n      jump\t// out\n        /* \"#utility.yul\":90:208   */\n    tag_50:\n        /* \"#utility.yul\":177:201   */\n      tag_76\n        /* \"#utility.yul\":195:200   */\n      dup2\n        /* \"#utility.yul\":177:201   */\n      tag_49\n      jump\t// in\n    tag_76:\n        /* \"#utility.yul\":172:175   */\n      dup3\n        /* \"#utility.yul\":165:202   */\n      mstore\n        /* \"#utility.yul\":90:208   */\n      pop\n      pop\n      jump\t// out\n        /* \"#utility.yul\":214:436   */\n    tag_10:\n        /* \"#utility.yul\":307:311   */\n      0x00\n        /* \"#utility.yul\":345:347   */\n      0x20\n        /* \"#utility.yul\":334:343   */\n      dup3\n        /* \"#utility.yul\":330:348   */\n      add\n        /* \"#utility.yul\":322:348   */\n      swap1\n      pop\n        /* \"#utility.yul\":358:429   */\n      tag_78\n        /* \"#utility.yul\":426:427   */\n      0x00\n        /* \"#utility.yul\":415:424   */\n      dup4\n        /* \"#utility.yul\":411:428   */\n      add\n        /* \"#utility.yul\":402:408   */\n      dup5\n        /* \"#utility.yul\":358:429   */\n      tag_50\n      jump\t// in\n    tag_78:\n        /* \"#utility.yul\":214:436   */\n      swap3\n      swap2\n      pop\n      pop\n      jump\t// out\n        /* \"#utility.yul\":523:640   */\n    tag_52:\n        /* \"#utility.yul\":632:633   */\n      0x00\n        /* \"#utility.yul\":629:630   */\n      dup1\n        /* \"#utility.yul\":622:634   */\n      revert\n        /* \"#utility.yul\":769:895   */\n    tag_54:\n        /* \"#utility.yul\":806:813   */\n      0x00\n        /* \"#utility.yul\":846:888   */\n      0xffffffffffffffffffffffffffffffffffffffff\n        /* \"#utility.yul\":839:844   */\n      dup3\n        /* \"#utility.yul\":835:889   */\n      and\n        /* \"#utility.yul\":824:889   */\n      swap1\n      pop\n        /* \"#utility.yul\":769:895   */\n      swap2\n      swap1\n      pop\n      jump\t// out\n        /* \"#utility.yul\":901:997   */\n    tag_55:\n        /* \"#utility.yul\":938:945   */\n      0x00\n        /* \"#utility.yul\":967:991   */\n      tag_84\n        /* \"#utility.yul\":985:990   */\n      dup3\n        /* \"#utility.yul\":967:991   */\n      tag_54\n      jump\t// in\n    tag_84:\n        /* \"#utility.yul\":956:991   */\n      swap1\n      pop\n        /* \"#utility.yul\":901:997   */\n      swap2\n      swap1\n      pop\n      jump\t// out\n        /* \"#utility.yul\":1003:1125   */\n    tag_56:\n        /* \"#utility.yul\":1076:1100   */\n      tag_86\n        /* \"#utility.yul\":1094:1099   */\n      dup2\n        /* \"#utility.yul\":1076:1100   */\n      tag_55\n      jump\t// in\n    tag_86:\n        /* \"#utility.yul\":1069:1074   */\n      dup2\n        /* \"#utility.yul\":1066:1101   */\n      eq\n        /* \"#utility.yul\":1056:1119   */\n      tag_87\n      jumpi\n        /* \"#utility.yul\":1115:1116   */\n      0x00\n        /* \"#utility.yul\":1112:1113   */\n      dup1\n        /* \"#utility.yul\":1105:1117   */\n      revert\n        /* \"#utility.yul\":1056:1119   */\n    tag_87:\n        /* \"#utility.yul\":1003:1125   */\n      pop\n      jump\t// out\n        /* \"#utility.yul\":1131:1270   */\n    tag_57:\n        /* \"#utility.yul\":1177:1182   */\n      0x00\n        /* \"#utility.yul\":1215:1221   */\n      dup2\n        /* \"#utility.yul\":1202:1222   */\n      calldataload\n        /* \"#utility.yul\":1193:1222   */\n      swap1\n      pop\n        /* \"#utility.yul\":1231:1264   */\n      tag_89\n        /* \"#utility.yul\":1258:1263   */\n      dup2\n        /* \"#utility.yul\":1231:1264   */\n      tag_56\n      jump\t// in\n    tag_89:\n        /* \"#utility.yul\":1131:1270   */\n      swap3\n      swap2\n      pop\n      pop\n      jump\t// out\n        /* \"#utility.yul\":1276:1605   */\n    tag_14:\n        /* \"#utility.yul\":1335:1341   */\n      0x00\n        /* \"#utility.yul\":1384:1386   */\n      0x20\n        /* \"#utility.yul\":1372:1381   */\n      dup3\n        /* \"#utility.yul\":1363:1370   */\n      dup5\n        /* \"#utility.yul\":1359:1382   */\n      sub\n        /* \"#utility.yul\":1355:1387   */\n      slt\n        /* \"#utility.yul\":1352:1471   */\n      iszero\n      tag_91\n      jumpi\n        /* \"#utility.yul\":1390:1469   */\n      tag_92\n      tag_52\n      jump\t// in\n    tag_92:\n        /* \"#utility.yul\":1352:1471   */\n    tag_91:\n        /* \"#utility.yul\":1510:1511   */\n      0x00\n        /* \"#utility.yul\":1535:1588   */\n      tag_93\n        /* \"#utility.yul\":1580:1587   */\n      dup5\n        /* \"#utility.yul\":1571:1577   */\n      dup3\n        /* \"#utility.yul\":1560:1569   */\n      dup6\n        /* \"#utility.yul\":1556:1578   */\n      add\n        /* \"#utility.yul\":1535:1588   */\n      tag_57\n      jump\t// in\n    tag_93:\n        /* \"#utility.yul\":1525:1588   */\n      swap2\n      pop\n        /* \"#utility.yul\":1481:1598   */\n      pop\n        /* \"#utility.yul\":1276:1605   */\n      swap3\n      swap2\n      pop\n      pop\n      jump\t// out\n        /* \"#utility.yul\":1611:1733   */\n    tag_58:\n        /* \"#utility.yul\":1684:1708   */\n      tag_95\n        /* \"#utility.yul\":1702:1707   */\n      dup2\n        /* \"#utility.yul\":1684:1708   */\n      tag_49\n      jump\t// in\n    tag_95:\n        /* \"#utility.yul\":1677:1682   */\n      dup2\n        /* \"#utility.yul\":1674:1709   */\n      eq\n        /* \"#utility.yul\":1664:1727   */\n      tag_96\n      jumpi\n        /* \"#utility.yul\":1723:1724   */\n      0x00\n        /* \"#utility.yul\":1720:1721   */\n      dup1\n        /* \"#utility.yul\":1713:1725   */\n      revert\n        /* \"#utility.yul\":1664:1727   */\n    tag_96:\n        /* \"#utility.yul\":1611:1733   */\n      pop\n      jump\t// out\n        /* \"#utility.yul\":1739:1878   */\n    tag_59:\n        /* \"#utility.yul\":1785:1790   */\n      0x00\n        /* \"#utility.yul\":1823:1829   */\n      dup2\n        /* \"#utility.yul\":1810:1830   */\n      calldataload\n        /* \"#utility.yul\":1801:1830   */\n      swap1\n      pop\n        /* \"#utility.yul\":1839:1872   */\n      tag_98\n        /* \"#utility.yul\":1866:1871   */\n      dup2\n        /* \"#utility.yul\":1839:1872   */\n      tag_58\n      jump\t// in\n    tag_98:\n        /* \"#utility.yul\":1739:1878   */\n      swap3\n      swap2\n      pop\n      pop\n      jump\t// out\n        /* \"#utility.yul\":1884:2213   */\n    tag_22:\n        /* \"#utility.yul\":1943:1949   */\n      0x00\n        /* \"#utility.yul\":1992:1994   */\n      0x20\n        /* \"#utility.yul\":1980:1989   */\n      dup3\n        /* \"#utility.yul\":1971:1978   */\n      dup5\n        /* \"#utility.yul\":1967:1990   */\n      sub\n        /* \"#utility.yul\":1963:1995   */\n      slt\n        /* \"#utility.yul\":1960:2079   */\n      iszero\n      tag_100\n      jumpi\n        /* \"#utility.yul\":1998:2077   */\n      tag_101\n      tag_52\n      jump\t// in\n    tag_101:\n        /* \"#utility.yul\":1960:2079   */\n    tag_100:\n        /* \"#utility.yul\":2118:2119   */\n      0x00\n        /* \"#utility.yul\":2143:2196   */\n      tag_102\n        /* \"#utility.yul\":2188:2195   */\n      dup5\n        /* \"#utility.yul\":2179:2185   */\n      dup3\n        /* \"#utility.yul\":2168:2177   */\n      dup6\n        /* \"#utility.yul\":2164:2186   */\n      add\n        /* \"#utility.yul\":2143:2196   */\n      tag_59\n      jump\t// in\n    tag_102:\n        /* \"#utility.yul\":2133:2196   */\n      swap2\n      pop\n        /* \"#utility.yul\":2089:2206   */\n      pop\n        /* \"#utility.yul\":1884:2213   */\n      swap3\n      swap2\n      pop\n      pop\n      jump\t// out\n        /* \"#utility.yul\":2219:2337   */\n    tag_60:\n        /* \"#utility.yul\":2306:2330   */\n      tag_104\n        /* \"#utility.yul\":2324:2329   */\n      dup2\n        /* \"#utility.yul\":2306:2330   */\n      tag_55\n      jump\t// in\n    tag_104:\n        /* \"#utility.yul\":2301:2304   */\n      dup3\n        /* \"#utility.yul\":2294:2331   */\n      mstore\n        /* \"#utility.yul\":2219:2337   */\n      pop\n      pop\n      jump\t// out\n        /* \"#utility.yul\":2343:2565   */\n    tag_25:\n        /* \"#utility.yul\":2436:2440   */\n      0x00\n        /* \"#utility.yul\":2474:2476   */\n      0x20\n        /* \"#utility.yul\":2463:2472   */\n      dup3\n        /* \"#utility.yul\":2459:2477   */\n      add\n        /* \"#utility.yul\":2451:2477   */\n      swap1\n      pop\n        /* \"#utility.yul\":2487:2558   */\n      tag_106\n        /* \"#utility.yul\":2555:2556   */\n      0x00\n        /* \"#utility.yul\":2544:2553   */\n      dup4\n        /* \"#utility.yul\":2540:2557   */\n      add\n        /* \"#utility.yul\":2531:2537   */\n      dup5\n        /* \"#utility.yul\":2487:2558   */\n      tag_60\n      jump\t// in\n    tag_106:\n        /* \"#utility.yul\":2343:2565   */\n      swap3\n      swap2\n      pop\n      pop\n      jump\t// out\n        /* \"#utility.yul\":2571:2740   */\n    tag_61:\n        /* \"#utility.yul\":2655:2666   */\n      0x00\n        /* \"#utility.yul\":2689:2695   */\n      dup3\n        /* \"#utility.yul\":2684:2687   */\n      dup3\n        /* \"#utility.yul\":2677:2696   */\n      mstore\n        /* \"#utility.yul\":2729:2733   */\n      0x20\n        /* \"#utility.yul\":2724:2727   */\n      dup3\n        /* \"#utility.yul\":2720:2734   */\n      add\n        /* \"#utility.yul\":2705:2734   */\n      swap1\n      pop\n        /* \"#utility.yul\":2571:2740   */\n      swap3\n      swap2\n      pop\n      pop\n      jump\t// out\n        /* \"#utility.yul\":2746:2915   */\n    tag_62:\n        /* \"#utility.yul\":2886:2907   */\n      0x4469646e27742073656e6420656e6f7567682100000000000000000000000000\n        /* \"#utility.yul\":2882:2883   */\n      0x00\n        /* \"#utility.yul\":2874:2880   */\n      dup3\n        /* \"#utility.yul\":2870:2884   */\n      add\n        /* \"#utility.yul\":2863:2908   */\n      mstore\n        /* \"#utility.yul\":2746:2915   */\n      pop\n      jump\t// out\n        /* \"#utility.yul\":2921:3287   */\n    tag_63:\n        /* \"#utility.yul\":3063:3066   */\n      0x00\n        /* \"#utility.yul\":3084:3151   */\n      tag_110\n        /* \"#utility.yul\":3148:3150   */\n      0x13\n        /* \"#utility.yul\":3143:3146   */\n      dup4\n        /* \"#utility.yul\":3084:3151   */\n      tag_61\n      jump\t// in\n    tag_110:\n        /* \"#utility.yul\":3077:3151   */\n      swap2\n      pop\n        /* \"#utility.yul\":3160:3253   */\n      tag_111\n        /* \"#utility.yul\":3249:3252   */\n      dup3\n        /* \"#utility.yul\":3160:3253   */\n      tag_62\n      jump\t// in\n    tag_111:\n        /* \"#utility.yul\":3278:3280   */\n      0x20\n        /* \"#utility.yul\":3273:3276   */\n      dup3\n        /* \"#utility.yul\":3269:3281   */\n      add\n        /* \"#utility.yul\":3262:3281   */\n      swap1\n      pop\n        /* \"#utility.yul\":2921:3287   */\n      swap2\n      swap1\n      pop\n      jump\t// out\n        /* \"#utility.yul\":3293:3712   */\n    tag_31:\n        /* \"#utility.yul\":3459:3463   */\n      0x00\n        /* \"#utility.yul\":3497:3499   */\n      0x20\n        /* \"#utility.yul\":3486:3495   */\n      dup3\n        /* \"#utility.yul\":3482:3500   */\n      add\n        /* \"#utility.yul\":3474:3500   */\n      swap1\n      pop\n        /* \"#utility.yul\":3546:3555   */\n      dup2\n        /* \"#utility.yul\":3540:3544   */\n      dup2\n        /* \"#utility.yul\":3536:3556   */\n      sub\n        /* \"#utility.yul\":3532:3533   */\n      0x00\n        /* \"#utility.yul\":3521:3530   */\n      dup4\n        /* \"#utility.yul\":3517:3534   */\n      add\n        /* \"#utility.yul\":3510:3557   */\n      mstore\n        /* \"#utility.yul\":3574:3705   */\n      tag_113\n        /* \"#utility.yul\":3700:3704   */\n      dup2\n        /* \"#utility.yul\":3574:3705   */\n      tag_63\n      jump\t// in\n    tag_113:\n        /* \"#utility.yul\":3566:3705   */\n      swap1\n      pop\n        /* \"#utility.yul\":3293:3712   */\n      swap2\n      swap1\n      pop\n      jump\t// out\n        /* \"#utility.yul\":3718:3898   */\n    tag_64:\n        /* \"#utility.yul\":3766:3843   */\n      0x4e487b7100000000000000000000000000000000000000000000000000000000\n        /* \"#utility.yul\":3763:3764   */\n      0x00\n        /* \"#utility.yul\":3756:3844   */\n      mstore\n        /* \"#utility.yul\":3863:3867   */\n      0x11\n        /* \"#utility.yul\":3860:3861   */\n      0x04\n        /* \"#utility.yul\":3853:3868   */\n      mstore\n        /* \"#utility.yul\":3887:3891   */\n      0x24\n        /* \"#utility.yul\":3884:3885   */\n      0x00\n        /* \"#utility.yul\":3877:3892   */\n      revert\n        /* \"#utility.yul\":3904:4314   */\n    tag_39:\n        /* \"#utility.yul\":3944:3951   */\n      0x00\n        /* \"#utility.yul\":3967:3987   */\n      tag_116\n        /* \"#utility.yul\":3985:3986   */\n      dup3\n        /* \"#utility.yul\":3967:3987   */\n      tag_49\n      jump\t// in\n    tag_116:\n        /* \"#utility.yul\":3962:3987   */\n      swap2\n      pop\n        /* \"#utility.yul\":4001:4021   */\n      tag_117\n        /* \"#utility.yul\":4019:4020   */\n      dup4\n        /* \"#utility.yul\":4001:4021   */\n      tag_49\n      jump\t// in\n    tag_117:\n        /* \"#utility.yul\":3996:4021   */\n      swap3\n      pop\n        /* \"#utility.yul\":4056:4057   */\n      dup3\n        /* \"#utility.yul\":4053:4054   */\n      dup3\n        /* \"#utility.yul\":4049:4058   */\n      mul\n        /* \"#utility.yul\":4078:4108   */\n      tag_118\n        /* \"#utility.yul\":4096:4107   */\n      dup2\n        /* \"#utility.yul\":4078:4108   */\n      tag_49\n      jump\t// in\n    tag_118:\n        /* \"#utility.yul\":4067:4108   */\n      swap2\n      pop\n        /* \"#utility.yul\":4257:4258   */\n      dup3\n        /* \"#utility.yul\":4248:4255   */\n      dup3\n        /* \"#utility.yul\":4244:4259   */\n      div\n        /* \"#utility.yul\":4241:4242   */\n      dup5\n        /* \"#utility.yul\":4238:4260   */\n      eq\n        /* \"#utility.yul\":4218:4219   */\n      dup4\n        /* \"#utility.yul\":4211:4220   */\n      iszero\n        /* \"#utility.yul\":4191:4274   */\n      or\n        /* \"#utility.yul\":4168:4307   */\n      tag_119\n      jumpi\n        /* \"#utility.yul\":4287:4305   */\n      tag_120\n      tag_64\n      jump\t// in\n    tag_120:\n        /* \"#utility.yul\":4168:4307   */\n    tag_119:\n        /* \"#utility.yul\":3952:4314   */\n      pop\n        /* \"#utility.yul\":3904:4314   */\n      swap3\n      swap2\n      pop\n      pop\n      jump\t// out\n        /* \"#utility.yul\":4320:4500   */\n    tag_65:\n        /* \"#utility.yul\":4368:4445   */\n      0x4e487b7100000000000000000000000000000000000000000000000000000000\n        /* \"#utility.yul\":4365:4366   */\n      0x00\n        /* \"#utility.yul\":4358:4446   */\n      mstore\n        /* \"#utility.yul\":4465:4469   */\n      0x12\n        /* \"#utility.yul\":4462:4463   */\n      0x04\n        /* \"#utility.yul\":4455:4470   */\n      mstore\n        /* \"#utility.yul\":4489:4493   */\n      0x24\n        /* \"#utility.yul\":4486:4487   */\n      0x00\n        /* \"#utility.yul\":4479:4494   */\n      revert\n        /* \"#utility.yul\":4506:4691   */\n    tag_41:\n        /* \"#utility.yul\":4546:4547   */\n      0x00\n        /* \"#utility.yul\":4563:4583   */\n      tag_123\n        /* \"#utility.yul\":4581:4582   */\n      dup3\n        /* \"#utility.yul\":4563:4583   */\n      tag_49\n      jump\t// in\n    tag_123:\n        /* \"#utility.yul\":4558:4583   */\n      swap2\n      pop\n        /* \"#utility.yul\":4597:4617   */\n      tag_124\n        /* \"#utility.yul\":4615:4616   */\n      dup4\n        /* \"#utility.yul\":4597:4617   */\n      tag_49\n      jump\t// in\n    tag_124:\n        /* \"#utility.yul\":4592:4617   */\n      swap3\n      pop\n        /* \"#utility.yul\":4636:4637   */\n      dup3\n        /* \"#utility.yul\":4626:4661   */\n      tag_125\n      jumpi\n        /* \"#utility.yul\":4641:4659   */\n      tag_126\n      tag_65\n      jump\t// in\n    tag_126:\n        /* \"#utility.yul\":4626:4661   */\n    tag_125:\n        /* \"#utility.yul\":4683:4684   */\n      dup3\n        /* \"#utility.yul\":4680:4681   */\n      dup3\n        /* \"#utility.yul\":4676:4685   */\n      div\n        /* \"#utility.yul\":4671:4685   */\n      swap1\n      pop\n        /* \"#utility.yul\":4506:4691   */\n      swap3\n      swap2\n      pop\n      pop\n      jump\t// out\n        /* \"#utility.yul\":4697:4802   */\n    tag_66:\n        /* \"#utility.yul\":4733:4740   */\n      0x00\n        /* \"#utility.yul\":4773:4795   */\n      0xffffffffffffffffffff\n        /* \"#utility.yul\":4766:4771   */\n      dup3\n        /* \"#utility.yul\":4762:4796   */\n      and\n        /* \"#utility.yul\":4751:4796   */\n      swap1\n      pop\n        /* \"#utility.yul\":4697:4802   */\n      swap2\n      swap1\n      pop\n      jump\t// out\n        /* \"#utility.yul\":4808:4928   */\n    tag_67:\n        /* \"#utility.yul\":4880:4903   */\n      tag_129\n        /* \"#utility.yul\":4897:4902   */\n      dup2\n        /* \"#utility.yul\":4880:4903   */\n      tag_66\n      jump\t// in\n    tag_129:\n        /* \"#utility.yul\":4873:4878   */\n      dup2\n        /* \"#utility.yul\":4870:4904   */\n      eq\n        /* \"#utility.yul\":4860:4922   */\n      tag_130\n      jumpi\n        /* \"#utility.yul\":4918:4919   */\n      0x00\n        /* \"#utility.yul\":4915:4916   */\n      dup1\n        /* \"#utility.yul\":4908:4920   */\n      revert\n        /* \"#utility.yul\":4860:4922   */\n    tag_130:\n        /* \"#utility.yul\":4808:4928   */\n      pop\n      jump\t// out\n        /* \"#utility.yul\":4934:5075   */\n    tag_68:\n        /* \"#utility.yul\":4990:4995   */\n      0x00\n        /* \"#utility.yul\":5021:5027   */\n      dup2\n        /* \"#utility.yul\":5015:5028   */\n      mload\n        /* \"#utility.yul\":5006:5028   */\n      swap1\n      pop\n        /* \"#utility.yul\":5037:5069   */\n      tag_132\n        /* \"#utility.yul\":5063:5068   */\n      dup2\n        /* \"#utility.yul\":5037:5069   */\n      tag_67\n      jump\t// in\n    tag_132:\n        /* \"#utility.yul\":4934:5075   */\n      swap3\n      swap2\n      pop\n      pop\n      jump\t// out\n        /* \"#utility.yul\":5081:5157   */\n    tag_69:\n        /* \"#utility.yul\":5117:5124   */\n      0x00\n        /* \"#utility.yul\":5146:5151   */\n      dup2\n        /* \"#utility.yul\":5135:5151   */\n      swap1\n      pop\n        /* \"#utility.yul\":5081:5157   */\n      swap2\n      swap1\n      pop\n      jump\t// out\n        /* \"#utility.yul\":5163:5283   */\n    tag_70:\n        /* \"#utility.yul\":5235:5258   */\n      tag_135\n        /* \"#utility.yul\":5252:5257   */\n      dup2\n        /* \"#utility.yul\":5235:5258   */\n      tag_69\n      jump\t// in\n    tag_135:\n        /* \"#utility.yul\":5228:5233   */\n      dup2\n        /* \"#utility.yul\":5225:5259   */\n      eq\n        /* \"#utility.yul\":5215:5277   */\n      tag_136\n      jumpi\n        /* \"#utility.yul\":5273:5274   */\n      0x00\n        /* \"#utility.yul\":5270:5271   */\n      dup1\n        /* \"#utility.yul\":5263:5275   */\n      revert\n        /* \"#utility.yul\":5215:5277   */\n    tag_136:\n        /* \"#utility.yul\":5163:5283   */\n      pop\n      jump\t// out\n        /* \"#utility.yul\":5289:5430   */\n    tag_71:\n        /* \"#utility.yul\":5345:5350   */\n      0x00\n        /* \"#utility.yul\":5376:5382   */\n      dup2\n        /* \"#utility.yul\":5370:5383   */\n      mload\n        /* \"#utility.yul\":5361:5383   */\n      swap1\n      pop\n        /* \"#utility.yul\":5392:5424   */\n      tag_138\n        /* \"#utility.yul\":5418:5423   */\n      dup2\n        /* \"#utility.yul\":5392:5424   */\n      tag_70\n      jump\t// in\n    tag_138:\n        /* \"#utility.yul\":5289:5430   */\n      swap3\n      swap2\n      pop\n      pop\n      jump\t// out\n        /* \"#utility.yul\":5436:5579   */\n    tag_72:\n        /* \"#utility.yul\":5493:5498   */\n      0x00\n        /* \"#utility.yul\":5524:5530   */\n      dup2\n        /* \"#utility.yul\":5518:5531   */\n      mload\n        /* \"#utility.yul\":5509:5531   */\n      swap1\n      pop\n        /* \"#utility.yul\":5540:5573   */\n      tag_140\n        /* \"#utility.yul\":5567:5572   */\n      dup2\n        /* \"#utility.yul\":5540:5573   */\n      tag_58\n      jump\t// in\n    tag_140:\n        /* \"#utility.yul\":5436:5579   */\n      swap3\n      swap2\n      pop\n      pop\n      jump\t// out\n        /* \"#utility.yul\":5585:6556   */\n    tag_46:\n        /* \"#utility.yul\":5688:5694   */\n      0x00\n        /* \"#utility.yul\":5696:5702   */\n      dup1\n        /* \"#utility.yul\":5704:5710   */\n      0x00\n        /* \"#utility.yul\":5712:5718   */\n      dup1\n        /* \"#utility.yul\":5720:5726   */\n      0x00\n        /* \"#utility.yul\":5769:5772   */\n      0xa0\n        /* \"#utility.yul\":5757:5766   */\n      dup7\n        /* \"#utility.yul\":5748:5755   */\n      dup9\n        /* \"#utility.yul\":5744:5767   */\n      sub\n        /* \"#utility.yul\":5740:5773   */\n      slt\n        /* \"#utility.yul\":5737:5857   */\n      iszero\n      tag_142\n      jumpi\n        /* \"#utility.yul\":5776:5855   */\n      tag_143\n      tag_52\n      jump\t// in\n    tag_143:\n        /* \"#utility.yul\":5737:5857   */\n    tag_142:\n        /* \"#utility.yul\":5896:5897   */\n      0x00\n        /* \"#utility.yul\":5921:5984   */\n      tag_144\n        /* \"#utility.yul\":5976:5983   */\n      dup9\n        /* \"#utility.yul\":5967:5973   */\n      dup3\n        /* \"#utility.yul\":5956:5965   */\n      dup10\n        /* \"#utility.yul\":5952:5974   */\n      add\n        /* \"#utility.yul\":5921:5984   */\n      tag_68\n      jump\t// in\n    tag_144:\n        /* \"#utility.yul\":5911:5984   */\n      swap6\n      pop\n        /* \"#utility.yul\":5867:5994   */\n      pop\n        /* \"#utility.yul\":6033:6035   */\n      0x20\n        /* \"#utility.yul\":6059:6122   */\n      tag_145\n        /* \"#utility.yul\":6114:6121   */\n      dup9\n        /* \"#utility.yul\":6105:6111   */\n      dup3\n        /* \"#utility.yul\":6094:6103   */\n      dup10\n        /* \"#utility.yul\":6090:6112   */\n      add\n        /* \"#utility.yul\":6059:6122   */\n      tag_71\n      jump\t// in\n    tag_145:\n        /* \"#utility.yul\":6049:6122   */\n      swap5\n      pop\n        /* \"#utility.yul\":6004:6132   */\n      pop\n        /* \"#utility.yul\":6171:6173   */\n      0x40\n        /* \"#utility.yul\":6197:6261   */\n      tag_146\n        /* \"#utility.yul\":6253:6260   */\n      dup9\n        /* \"#utility.yul\":6244:6250   */\n      dup3\n        /* \"#utility.yul\":6233:6242   */\n      dup10\n        /* \"#utility.yul\":6229:6251   */\n      add\n        /* \"#utility.yul\":6197:6261   */\n      tag_72\n      jump\t// in\n    tag_146:\n        /* \"#utility.yul\":6187:6261   */\n      swap4\n      pop\n        /* \"#utility.yul\":6142:6271   */\n      pop\n        /* \"#utility.yul\":6310:6312   */\n      0x60\n        /* \"#utility.yul\":6336:6400   */\n      tag_147\n        /* \"#utility.yul\":6392:6399   */\n      dup9\n        /* \"#utility.yul\":6383:6389   */\n      dup3\n        /* \"#utility.yul\":6372:6381   */\n      dup10\n        /* \"#utility.yul\":6368:6390   */\n      add\n        /* \"#utility.yul\":6336:6400   */\n      tag_72\n      jump\t// in\n    tag_147:\n        /* \"#utility.yul\":6326:6400   */\n      swap3\n      pop\n        /* \"#utility.yul\":6281:6410   */\n      pop\n        /* \"#utility.yul\":6449:6452   */\n      0x80\n        /* \"#utility.yul\":6476:6539   */\n      tag_148\n        /* \"#utility.yul\":6531:6538   */\n      dup9\n        /* \"#utility.yul\":6522:6528   */\n      dup3\n        /* \"#utility.yul\":6511:6520   */\n      dup10\n        /* \"#utility.yul\":6507:6529   */\n      add\n        /* \"#utility.yul\":6476:6539   */\n      tag_68\n      jump\t// in\n    tag_148:\n        /* \"#utility.yul\":6466:6539   */\n      swap2\n      pop\n        /* \"#utility.yul\":6420:6549   */\n      pop\n        /* \"#utility.yul\":5585:6556   */\n      swap3\n      swap6\n      pop\n      swap3\n      swap6\n      swap1\n      swap4\n      pop\n      jump\t// out\n        /* \"#utility.yul\":6562:6937   */\n    tag_48:\n        /* \"#utility.yul\":6601:6604   */\n      0x00\n        /* \"#utility.yul\":6620:6639   */\n      tag_150\n        /* \"#utility.yul\":6637:6638   */\n      dup3\n        /* \"#utility.yul\":6620:6639   */\n      tag_69\n      jump\t// in\n    tag_150:\n        /* \"#utility.yul\":6615:6639   */\n      swap2\n      pop\n        /* \"#utility.yul\":6653:6672   */\n      tag_151\n        /* \"#utility.yul\":6670:6671   */\n      dup4\n        /* \"#utility.yul\":6653:6672   */\n      tag_69\n      jump\t// in\n    tag_151:\n        /* \"#utility.yul\":6648:6672   */\n      swap3\n      pop\n        /* \"#utility.yul\":6695:6696   */\n      dup3\n        /* \"#utility.yul\":6692:6693   */\n      dup3\n        /* \"#utility.yul\":6688:6697   */\n      add\n        /* \"#utility.yul\":6681:6697   */\n      swap1\n      pop\n        /* \"#utility.yul\":6893:6894   */\n      dup3\n        /* \"#utility.yul\":6888:6891   */\n      dup2\n        /* \"#utility.yul\":6884:6895   */\n      slt\n        /* \"#utility.yul\":6877:6896   */\n      iszero\n        /* \"#utility.yul\":6873:6874   */\n      0x00\n        /* \"#utility.yul\":6870:6871   */\n      dup4\n        /* \"#utility.yul\":6866:6875   */\n      slt\n        /* \"#utility.yul\":6862:6897   */\n      and\n        /* \"#utility.yul\":6845:6846   */\n      dup4\n        /* \"#utility.yul\":6840:6843   */\n      dup3\n        /* \"#utility.yul\":6836:6847   */\n      slt\n        /* \"#utility.yul\":6831:6832   */\n      0x00\n        /* \"#utility.yul\":6828:6829   */\n      dup5\n        /* \"#utility.yul\":6824:6833   */\n      slt\n        /* \"#utility.yul\":6817:6834   */\n      iszero\n        /* \"#utility.yul\":6813:6848   */\n      and\n        /* \"#utility.yul\":6797:6907   */\n      or\n        /* \"#utility.yul\":6794:6930   */\n      iszero\n      tag_152\n      jumpi\n        /* \"#utility.yul\":6910:6928   */\n      tag_153\n      tag_64\n      jump\t// in\n    tag_153:\n        /* \"#utility.yul\":6794:6930   */\n    tag_152:\n        /* \"#utility.yul\":6562:6937   */\n      swap3\n      swap2\n      pop\n      pop\n      jump\t// out\n\n    auxdata: 0xa26469706673582212202b50b63e23edcb1a10ff51417124c5cf6530ad825fbf1170a7d54d0b1ef2b8d564736f6c63430008160033\n}\n",
				"bytecode": {
					"linkReferences": {},
					"object": "60806040526802b5e3af16b18800005f5534801561001b575f80fd5b506106fe806100295f395ff3fe60806040526004361061003e575f3560e01c8063098de820146100425780633e47d6f31461006c578063b60d4288146100a8578063dc0d3dff146100b2575b5f80fd5b34801561004d575f80fd5b506100566100ee565b6040516100639190610328565b60405180910390f35b348015610077575f80fd5b50610092600480360381019061008d919061039f565b6100f3565b60405161009f9190610328565b60405180910390f35b6100b0610108565b005b3480156100bd575f80fd5b506100d860048036038101906100d391906103f4565b6101f8565b6040516100e5919061042e565b60405180910390f35b5f5481565b6002602052805f5260405f205f915090505481565b5f5461011334610233565b1015610154576040517f08c379a000000000000000000000000000000000000000000000000000000000815260040161014b906104a1565b60405180910390fd5b600133908060018154018082558091505060019003905f5260205f20015f9091909190916101000a81548173ffffffffffffffffffffffffffffffffffffffff021916908373ffffffffffffffffffffffffffffffffffffffff1602179055503460025f3373ffffffffffffffffffffffffffffffffffffffff1673ffffffffffffffffffffffffffffffffffffffff1681526020019081526020015f2081905550565b60018181548110610207575f80fd5b905f5260205f20015f915054906101000a900473ffffffffffffffffffffffffffffffffffffffff1681565b5f8061023d61026b565b90505f670de0b6b3a7640000848361025591906104ec565b61025f919061055a565b90508092505050919050565b5f8073694aa1769357215de4fac081bf1f309adc32530690505f8173ffffffffffffffffffffffffffffffffffffffff1663feaf968c6040518163ffffffff1660e01b815260040160a060405180830381865afa1580156102ce573d5f803e3d5ffd5b505050506040513d601f19601f820116820180604052508101906102f29190610610565b5050509150506402540be400816103099190610687565b9250505090565b5f819050919050565b61032281610310565b82525050565b5f60208201905061033b5f830184610319565b92915050565b5f80fd5b5f73ffffffffffffffffffffffffffffffffffffffff82169050919050565b5f61036e82610345565b9050919050565b61037e81610364565b8114610388575f80fd5b50565b5f8135905061039981610375565b92915050565b5f602082840312156103b4576103b3610341565b5b5f6103c18482850161038b565b91505092915050565b6103d381610310565b81146103dd575f80fd5b50565b5f813590506103ee816103ca565b92915050565b5f6020828403121561040957610408610341565b5b5f610416848285016103e0565b91505092915050565b61042881610364565b82525050565b5f6020820190506104415f83018461041f565b92915050565b5f82825260208201905092915050565b7f4469646e27742073656e6420656e6f75676821000000000000000000000000005f82015250565b5f61048b601383610447565b915061049682610457565b602082019050919050565b5f6020820190508181035f8301526104b88161047f565b9050919050565b7f4e487b71000000000000000000000000000000000000000000000000000000005f52601160045260245ffd5b5f6104f682610310565b915061050183610310565b925082820261050f81610310565b91508282048414831517610526576105256104bf565b5b5092915050565b7f4e487b71000000000000000000000000000000000000000000000000000000005f52601260045260245ffd5b5f61056482610310565b915061056f83610310565b92508261057f5761057e61052d565b5b828204905092915050565b5f69ffffffffffffffffffff82169050919050565b6105a88161058a565b81146105b2575f80fd5b50565b5f815190506105c38161059f565b92915050565b5f819050919050565b6105db816105c9565b81146105e5575f80fd5b50565b5f815190506105f6816105d2565b92915050565b5f8151905061060a816103ca565b92915050565b5f805f805f60a0868803121561062957610628610341565b5b5f610636888289016105b5565b9550506020610647888289016105e8565b9450506040610658888289016105fc565b9350506060610669888289016105fc565b925050608061067a888289016105b5565b9150509295509295909350565b5f610691826105c9565b915061069c836105c9565b92508282019050828112155f8312168382125f8412151617156106c2576106c16104bf565b5b9291505056fea26469706673582212202b50b63e23edcb1a10ff51417124c5cf6530ad825fbf1170a7d54d0b1ef2b8d564736f6c63430008160033",
					"opcodes": "PUSH1 0x80 PUSH1 0x40 MSTORE PUSH9 0x2B5E3AF16B1880000 PUSH0 SSTORE CALLVALUE DUP1 ISZERO PUSH2 0x1B JUMPI PUSH0 DUP1 REVERT JUMPDEST POP PUSH2 0x6FE DUP1 PUSH2 0x29 PUSH0 CODECOPY PUSH0 RETURN INVALID PUSH1 0x80 PUSH1 0x40 MSTORE PUSH1 0x4 CALLDATASIZE LT PUSH2 0x3E JUMPI PUSH0 CALLDATALOAD PUSH1 0xE0 SHR DUP1 PUSH4 0x98DE820 EQ PUSH2 0x42 JUMPI DUP1 PUSH4 0x3E47D6F3 EQ PUSH2 0x6C JUMPI DUP1 PUSH4 0xB60D4288 EQ PUSH2 0xA8 JUMPI DUP1 PUSH4 0xDC0D3DFF EQ PUSH2 0xB2 JUMPI JUMPDEST PUSH0 DUP1 REVERT JUMPDEST CALLVALUE DUP1 ISZERO PUSH2 0x4D JUMPI PUSH0 DUP1 REVERT JUMPDEST POP PUSH2 0x56 PUSH2 0xEE JUMP JUMPDEST PUSH1 0x40 MLOAD PUSH2 0x63 SWAP2 SWAP1 PUSH2 0x328 JUMP JUMPDEST PUSH1 0x40 MLOAD DUP1 SWAP2 SUB SWAP1 RETURN JUMPDEST CALLVALUE DUP1 ISZERO PUSH2 0x77 JUMPI PUSH0 DUP1 REVERT JUMPDEST POP PUSH2 0x92 PUSH1 0x4 DUP1 CALLDATASIZE SUB DUP2 ADD SWAP1 PUSH2 0x8D SWAP2 SWAP1 PUSH2 0x39F JUMP JUMPDEST PUSH2 0xF3 JUMP JUMPDEST PUSH1 0x40 MLOAD PUSH2 0x9F SWAP2 SWAP1 PUSH2 0x328 JUMP JUMPDEST PUSH1 0x40 MLOAD DUP1 SWAP2 SUB SWAP1 RETURN JUMPDEST PUSH2 0xB0 PUSH2 0x108 JUMP JUMPDEST STOP JUMPDEST CALLVALUE DUP1 ISZERO PUSH2 0xBD JUMPI PUSH0 DUP1 REVERT JUMPDEST POP PUSH2 0xD8 PUSH1 0x4 DUP1 CALLDATASIZE SUB DUP2 ADD SWAP1 PUSH2 0xD3 SWAP2 SWAP1 PUSH2 0x3F4 JUMP JUMPDEST PUSH2 0x1F8 JUMP JUMPDEST PUSH1 0x40 MLOAD PUSH2 0xE5 SWAP2 SWAP1 PUSH2 0x42E JUMP JUMPDEST PUSH1 0x40 MLOAD DUP1 SWAP2 SUB SWAP1 RETURN JUMPDEST PUSH0 SLOAD DUP2 JUMP JUMPDEST PUSH1 0x2 PUSH1 0x20 MSTORE DUP1 PUSH0 MSTORE PUSH1 0x40 PUSH0 KECCAK256 PUSH0 SWAP2 POP SWAP1 POP SLOAD DUP2 JUMP JUMPDEST PUSH0 SLOAD PUSH2 0x113 CALLVALUE PUSH2 0x233 JUMP JUMPDEST LT ISZERO PUSH2 0x154 JUMPI PUSH1 0x40 MLOAD PUSH32 0x8C379A000000000000000000000000000000000000000000000000000000000 DUP2 MSTORE PUSH1 0x4 ADD PUSH2 0x14B SWAP1 PUSH2 0x4A1 JUMP JUMPDEST PUSH1 0x40 MLOAD DUP1 SWAP2 SUB SWAP1 REVERT JUMPDEST PUSH1 0x1 CALLER SWAP1 DUP1 PUSH1 0x1 DUP2 SLOAD ADD DUP1 DUP3 SSTORE DUP1 SWAP2 POP POP PUSH1 0x1 SWAP1 SUB SWAP1 PUSH0 MSTORE PUSH1 0x20 PUSH0 KECCAK256 ADD PUSH0 SWAP1 SWAP2 SWAP1 SWAP2 SWAP1 SWAP2 PUSH2 0x100 EXP DUP2 SLOAD DUP2 PUSH20 0xFFFFFFFFFFFFFFFFFFFFFFFFFFFFFFFFFFFFFFFF MUL NOT AND SWAP1 DUP4 PUSH20 0xFFFFFFFFFFFFFFFFFFFFFFFFFFFFFFFFFFFFFFFF AND MUL OR SWAP1 SSTORE POP CALLVALUE PUSH1 0x2 PUSH0 CALLER PUSH20 0xFFFFFFFFFFFFFFFFFFFFFFFFFFFFFFFFFFFFFFFF AND PUSH20 0xFFFFFFFFFFFFFFFFFFFFFFFFFFFFFFFFFFFFFFFF AND DUP2 MSTORE PUSH1 0x20 ADD SWAP1 DUP2 MSTORE PUSH1 0x20 ADD PUSH0 KECCAK256 DUP2 SWAP1 SSTORE POP JUMP JUMPDEST PUSH1 0x1 DUP2 DUP2 SLOAD DUP2 LT PUSH2 0x207 JUMPI PUSH0 DUP1 REVERT JUMPDEST SWAP1 PUSH0 MSTORE PUSH1 0x20 PUSH0 KECCAK256 ADD PUSH0 SWAP2 POP SLOAD SWAP1 PUSH2 0x100 EXP SWAP1 DIV PUSH20 0xFFFFFFFFFFFFFFFFFFFFFFFFFFFFFFFFFFFFFFFF AND DUP2 JUMP JUMPDEST PUSH0 DUP1 PUSH2 0x23D PUSH2 0x26B JUMP JUMPDEST SWAP1 POP PUSH0 PUSH8 0xDE0B6B3A7640000 DUP5 DUP4 PUSH2 0x255 SWAP2 SWAP1 PUSH2 0x4EC JUMP JUMPDEST PUSH2 0x25F SWAP2 SWAP1 PUSH2 0x55A JUMP JUMPDEST SWAP1 POP DUP1 SWAP3 POP POP POP SWAP2 SWAP1 POP JUMP JUMPDEST PUSH0 DUP1 PUSH20 0x694AA1769357215DE4FAC081BF1F309ADC325306 SWAP1 POP PUSH0 DUP2 PUSH20 0xFFFFFFFFFFFFFFFFFFFFFFFFFFFFFFFFFFFFFFFF AND PUSH4 0xFEAF968C PUSH1 0x40 MLOAD DUP2 PUSH4 0xFFFFFFFF AND PUSH1 0xE0 SHL DUP2 MSTORE PUSH1 0x4 ADD PUSH1 0xA0 PUSH1 0x40 MLOAD DUP1 DUP4 SUB DUP2 DUP7 GAS STATICCALL ISZERO DUP1 ISZERO PUSH2 0x2CE JUMPI RETURNDATASIZE PUSH0 DUP1 RETURNDATACOPY RETURNDATASIZE PUSH0 REVERT JUMPDEST POP POP POP POP PUSH1 0x40 MLOAD RETURNDATASIZE PUSH1 0x1F NOT PUSH1 0x1F DUP3 ADD AND DUP3 ADD DUP1 PUSH1 0x40 MSTORE POP DUP2 ADD SWAP1 PUSH2 0x2F2 SWAP2 SWAP1 PUSH2 0x610 JUMP JUMPDEST POP POP POP SWAP2 POP POP PUSH5 0x2540BE400 DUP2 PUSH2 0x309 SWAP2 SWAP1 PUSH2 0x687 JUMP JUMPDEST SWAP3 POP POP POP SWAP1 JUMP JUMPDEST PUSH0 DUP2 SWAP1 POP SWAP2 SWAP1 POP JUMP JUMPDEST PUSH2 0x322 DUP2 PUSH2 0x310 JUMP JUMPDEST DUP3 MSTORE POP POP JUMP JUMPDEST PUSH0 PUSH1 0x20 DUP3 ADD SWAP1 POP PUSH2 0x33B PUSH0 DUP4 ADD DUP5 PUSH2 0x319 JUMP JUMPDEST SWAP3 SWAP2 POP POP JUMP JUMPDEST PUSH0 DUP1 REVERT JUMPDEST PUSH0 PUSH20 0xFFFFFFFFFFFFFFFFFFFFFFFFFFFFFFFFFFFFFFFF DUP3 AND SWAP1 POP SWAP2 SWAP1 POP JUMP JUMPDEST PUSH0 PUSH2 0x36E DUP3 PUSH2 0x345 JUMP JUMPDEST SWAP1 POP SWAP2 SWAP1 POP JUMP JUMPDEST PUSH2 0x37E DUP2 PUSH2 0x364 JUMP JUMPDEST DUP2 EQ PUSH2 0x388 JUMPI PUSH0 DUP1 REVERT JUMPDEST POP JUMP JUMPDEST PUSH0 DUP2 CALLDATALOAD SWAP1 POP PUSH2 0x399 DUP2 PUSH2 0x375 JUMP JUMPDEST SWAP3 SWAP2 POP POP JUMP JUMPDEST PUSH0 PUSH1 0x20 DUP3 DUP5 SUB SLT ISZERO PUSH2 0x3B4 JUMPI PUSH2 0x3B3 PUSH2 0x341 JUMP JUMPDEST JUMPDEST PUSH0 PUSH2 0x3C1 DUP5 DUP3 DUP6 ADD PUSH2 0x38B JUMP JUMPDEST SWAP2 POP POP SWAP3 SWAP2 POP POP JUMP JUMPDEST PUSH2 0x3D3 DUP2 PUSH2 0x310 JUMP JUMPDEST DUP2 EQ PUSH2 0x3DD JUMPI PUSH0 DUP1 REVERT JUMPDEST POP JUMP JUMPDEST PUSH0 DUP2 CALLDATALOAD SWAP1 POP PUSH2 0x3EE DUP2 PUSH2 0x3CA JUMP JUMPDEST SWAP3 SWAP2 POP POP JUMP JUMPDEST PUSH0 PUSH1 0x20 DUP3 DUP5 SUB SLT ISZERO PUSH2 0x409 JUMPI PUSH2 0x408 PUSH2 0x341 JUMP JUMPDEST JUMPDEST PUSH0 PUSH2 0x416 DUP5 DUP3 DUP6 ADD PUSH2 0x3E0 JUMP JUMPDEST SWAP2 POP POP SWAP3 SWAP2 POP POP JUMP JUMPDEST PUSH2 0x428 DUP2 PUSH2 0x364 JUMP JUMPDEST DUP3 MSTORE POP POP JUMP JUMPDEST PUSH0 PUSH1 0x20 DUP3 ADD SWAP1 POP PUSH2 0x441 PUSH0 DUP4 ADD DUP5 PUSH2 0x41F JUMP JUMPDEST SWAP3 SWAP2 POP POP JUMP JUMPDEST PUSH0 DUP3 DUP3 MSTORE PUSH1 0x20 DUP3 ADD SWAP1 POP SWAP3 SWAP2 POP POP JUMP JUMPDEST PUSH32 0x4469646E27742073656E6420656E6F7567682100000000000000000000000000 PUSH0 DUP3 ADD MSTORE POP JUMP JUMPDEST PUSH0 PUSH2 0x48B PUSH1 0x13 DUP4 PUSH2 0x447 JUMP JUMPDEST SWAP2 POP PUSH2 0x496 DUP3 PUSH2 0x457 JUMP JUMPDEST PUSH1 0x20 DUP3 ADD SWAP1 POP SWAP2 SWAP1 POP JUMP JUMPDEST PUSH0 PUSH1 0x20 DUP3 ADD SWAP1 POP DUP2 DUP2 SUB PUSH0 DUP4 ADD MSTORE PUSH2 0x4B8 DUP2 PUSH2 0x47F JUMP JUMPDEST SWAP1 POP SWAP2 SWAP1 POP JUMP JUMPDEST PUSH32 0x4E487B7100000000000000000000000000000000000000000000000000000000 PUSH0 MSTORE PUSH1 0x11 PUSH1 0x4 MSTORE PUSH1 0x24 PUSH0 REVERT JUMPDEST PUSH0 PUSH2 0x4F6 DUP3 PUSH2 0x310 JUMP JUMPDEST SWAP2 POP PUSH2 0x501 DUP4 PUSH2 0x310 JUMP JUMPDEST SWAP3 POP DUP3 DUP3 MUL PUSH2 0x50F DUP2 PUSH2 0x310 JUMP JUMPDEST SWAP2 POP DUP3 DUP3 DIV DUP5 EQ DUP4 ISZERO OR PUSH2 0x526 JUMPI PUSH2 0x525 PUSH2 0x4BF JUMP JUMPDEST JUMPDEST POP SWAP3 SWAP2 POP POP JUMP JUMPDEST PUSH32 0x4E487B7100000000000000000000000000000000000000000000000000000000 PUSH0 MSTORE PUSH1 0x12 PUSH1 0x4 MSTORE PUSH1 0x24 PUSH0 REVERT JUMPDEST PUSH0 PUSH2 0x564 DUP3 PUSH2 0x310 JUMP JUMPDEST SWAP2 POP PUSH2 0x56F DUP4 PUSH2 0x310 JUMP JUMPDEST SWAP3 POP DUP3 PUSH2 0x57F JUMPI PUSH2 0x57E PUSH2 0x52D JUMP JUMPDEST JUMPDEST DUP3 DUP3 DIV SWAP1 POP SWAP3 SWAP2 POP POP JUMP JUMPDEST PUSH0 PUSH10 0xFFFFFFFFFFFFFFFFFFFF DUP3 AND SWAP1 POP SWAP2 SWAP1 POP JUMP JUMPDEST PUSH2 0x5A8 DUP2 PUSH2 0x58A JUMP JUMPDEST DUP2 EQ PUSH2 0x5B2 JUMPI PUSH0 DUP1 REVERT JUMPDEST POP JUMP JUMPDEST PUSH0 DUP2 MLOAD SWAP1 POP PUSH2 0x5C3 DUP2 PUSH2 0x59F JUMP JUMPDEST SWAP3 SWAP2 POP POP JUMP JUMPDEST PUSH0 DUP2 SWAP1 POP SWAP2 SWAP1 POP JUMP JUMPDEST PUSH2 0x5DB DUP2 PUSH2 0x5C9 JUMP JUMPDEST DUP2 EQ PUSH2 0x5E5 JUMPI PUSH0 DUP1 REVERT JUMPDEST POP JUMP JUMPDEST PUSH0 DUP2 MLOAD SWAP1 POP PUSH2 0x5F6 DUP2 PUSH2 0x5D2 JUMP JUMPDEST SWAP3 SWAP2 POP POP JUMP JUMPDEST PUSH0 DUP2 MLOAD SWAP1 POP PUSH2 0x60A DUP2 PUSH2 0x3CA JUMP JUMPDEST SWAP3 SWAP2 POP POP JUMP JUMPDEST PUSH0 DUP1 PUSH0 DUP1 PUSH0 PUSH1 0xA0 DUP7 DUP9 SUB SLT ISZERO PUSH2 0x629 JUMPI PUSH2 0x628 PUSH2 0x341 JUMP JUMPDEST JUMPDEST PUSH0 PUSH2 0x636 DUP9 DUP3 DUP10 ADD PUSH2 0x5B5 JUMP JUMPDEST SWAP6 POP POP PUSH1 0x20 PUSH2 0x647 DUP9 DUP3 DUP10 ADD PUSH2 0x5E8 JUMP JUMPDEST SWAP5 POP POP PUSH1 0x40 PUSH2 0x658 DUP9 DUP3 DUP10 ADD PUSH2 0x5FC JUMP JUMPDEST SWAP4 POP POP PUSH1 0x60 PUSH2 0x669 DUP9 DUP3 DUP10 ADD PUSH2 0x5FC JUMP JUMPDEST SWAP3 POP POP PUSH1 0x80 PUSH2 0x67A DUP9 DUP3 DUP10 ADD PUSH2 0x5B5 JUMP JUMPDEST SWAP2 POP POP SWAP3 SWAP6 POP SWAP3 SWAP6 SWAP1 SWAP4 POP JUMP JUMPDEST PUSH0 PUSH2 0x691 DUP3 PUSH2 0x5C9 JUMP JUMPDEST SWAP2 POP PUSH2 0x69C DUP4 PUSH2 0x5C9 JUMP JUMPDEST SWAP3 POP DUP3 DUP3 ADD SWAP1 POP DUP3 DUP2 SLT ISZERO PUSH0 DUP4 SLT AND DUP4 DUP3 SLT PUSH0 DUP5 SLT ISZERO AND OR ISZERO PUSH2 0x6C2 JUMPI PUSH2 0x6C1 PUSH2 0x4BF JUMP JUMPDEST JUMPDEST SWAP3 SWAP2 POP POP JUMP INVALID LOG2 PUSH5 0x6970667358 0x22 SLT KECCAK256 0x2B POP 0xB6 RETURNDATACOPY 0x23 0xED 0xCB BYTE LT SELFDESTRUCT MLOAD COINBASE PUSH18 0x24C5CF6530AD825FBF1170A7D54D0B1EF2B8 0xD5 PUSH5 0x736F6C6343 STOP ADDMOD AND STOP CALLER "
				},
				"gasEstimates": {
					"creation": {
						"codeDepositCost": "358000",
						"executionCost": "22496",
						"totalCost": "380496"
					},
					"external": {
						"addressToAmountFunded(address)": "2802",
						"fund()": "infinite",
						"funders(uint256)": "4988",
						"minimumUsd()": "2402"
					}
				},
				"methodIdentifiers": {
					"addressToAmountFunded(address)": "3e47d6f3",
					"fund()": "b60d4288",
					"funders(uint256)": "dc0d3dff",
					"minimumUsd()": "098de820"
				}
			},
			"storageLayout": {
				"storage": [
					{
						"astId": 56,
						"contract": "contracts/FundMe.sol:FundMe",
						"label": "minimumUsd",
						"offset": 0,
						"slot": "0",
						"type": "t_uint256"
					},
					{
						"astId": 59,
						"contract": "contracts/FundMe.sol:FundMe",
						"label": "funders",
						"offset": 0,
						"slot": "1",
						"type": "t_array(t_address)dyn_storage"
					},
					{
						"astId": 63,
						"contract": "contracts/FundMe.sol:FundMe",
						"label": "addressToAmountFunded",
						"offset": 0,
						"slot": "2",
						"type": "t_mapping(t_address,t_uint256)"
					}
				],
				"types": {
					"t_address": {
						"encoding": "inplace",
						"label": "address",
						"numberOfBytes": "20"
					},
					"t_array(t_address)dyn_storage": {
						"base": "t_address",
						"encoding": "dynamic_array",
						"label": "address[]",
						"numberOfBytes": "32"
					},
					"t_mapping(t_address,t_uint256)": {
						"encoding": "mapping",
						"key": "t_address",
						"label": "mapping(address => uint256)",
						"numberOfBytes": "32",
						"value": "t_uint256"
					},
					"t_uint256": {
						"encoding": "inplace",
						"label": "uint256",
						"numberOfBytes": "32"
					}
				}
			},
			"userdoc": {
				"kind": "user",
				"methods": {},
				"version": 1
			}
		}
	}
}